S00F00006362742D3130632E73726563EB
S11300004AC060C058C057C056C055C054C053C041
S113001052C051C050C04FC04EC04DC04CC04BC068
S11300204AC049C048C047C046C045C044C043C098
S113003042C041C0010124000101800008020010F7
S1130040050100012649493E0501000136494936AA
S11300500501000101611D03050100013E4949320A
S11300600501000127454539050100011814127FD7
S1130070050100012241493605010001625149464A
S11300800501000104027F0001FF050100013E415A
S1130090413E0101000111241FBECFEFD4E0DEBFB9
S11300A0CDBF21E0A0E0B1E001C01D92A130B207B4
S11300B0E1F72AD047C0A4CF0091000181E010D01D
S11300C085B908951F920F920FB60F9211248F9342
S11300D08AE285B98F910F900FBE0F901F901895EB
S11300E000008C5E0895289A289882E88093640022
S11300F081E083BF87EC8AB98CE284B92498249A7E
S1130100389A88B188B90895CF93DF931F92CDB7F9
S1130110DEB7E9DFE2E9F0E0E491E983E2E9F0E067
S113012084918093000185B9319680E0E639F8071F
S1130130B9F7898185B98FEF84B983E0BDDFF8947D
S10B01407894FFCFF894FFCF7F
S9030000FC
