S00F00006362742D3130632E73726563EB
S1130000FDC46BC50BC50AC569C508C507C506C5CA
S113001005C504C503C502C501C56AC585C5FEC4B9
S113002078C5FCC4FBC4FAC4F9C4F8C4F7C4F6C464
S1130030F5C4F4C40500A42FAFA6A0FF1F04000458
S11300403070E0C08000063F3F000580C0E07030A3
S11300500004C0C0C0C0C0C0000101E1F8FCFEFF44
S1130060FFFF030303060E1CF8E1010001808080FA
S1130070808080000680C0C30F1F3F3F7F7F606089
S11300806030381C0FC3C08001010101010100046C
S11300900607030100067E7E00070103070600042D
S11300A01404C0E07030303E3E2626262626263E26
S11300B03E303070E0C0FFFF0002CECECECECECEBA
S11300C0CECECECECECE0002FFFFFFFF00023939E6
S11300D0393939393939393939390002FFFF1F3F84
S11300E07060676767676767676767676767607098
S11300F03F1F1E04000380402010080834F4F2FA65
S1130100FAFAFAFAFAF2F4340808102040800003EC
S1130110E01C030008030FBFDFDFBF0F0300080369
S11301201CE00738C31F7FFFFFFFFFFFFF3F0C05E5
S11301300303050C3FFFFFFFFFFFFF7F1FC33807CB
S113014000030102040913172320404040404040AB
S11301504040202317130904020100031F04000474
S11301603070E0C08000063F3F000580C0E0703082
S11301700004C0C0C0C0C0C0000101E1F81C0E06EC
S11301800303030303060E1CF8E1010001808080D1
S1130190808080000680C0C30F1C383060606060BF
S11301A06030381C0FC3C08001010101010100044B
S11301B00607030100067E7E00070103070600040C
S11301C01B04000A80C0E070F8F80005C0C080007D
S11301D003FCFC0C0C0C0C0CFCFE0703010002FFDE
S11301E0FF00020C1CF8E001030FFCF03F3F30302D
S11301F03030303F7FE0C0800002FFFF00026070BB
S11302003F0F000180E07F1F000A0103070E1F1F3C
S113021000050607030100021C040007F0F8FCFCBB
S1130220FEFEFEFEFEFEFCFCF8F00008808080006E
S11302300307FFE7E3E3E73F3FE7E3E3E7FF070005
S11302400380808000010E1F1F0F0C1C18383030F3
S113025061E7E7C7C7E7E761303038181C0E0F1FA6
S11302601F0E0C3E3E3C0C0E060607030301010064
S113027002010103030706060E0C3C3E3E0C1F045C
S1130280000380C040000180000280C0C060606044
S11302906060C0C080000280000140C0800003E0B4
S11302A0FC1FE3F81E0701F0FE1F030007031FFEF7
S11302B0F001071EF8E30FFCE0073FF8C71F30808A
S11302C0F0FF9F80808080808080808080809FFF7E
S11302D0F080301FC7F03F07000501010101010153
S11302E001010307070703010101010101010100E5
S11302F005001C04C0E0F0783C9ECCC8E0E0E0F0CF
S113030070707070F0E0E0E0C88C9E3C78F0E0C063
S113031080F1F87E1F070301010004FEFE000401C2
S11303200103071F7EF8F1800F7FFFF0C00008076C
S11303300F0C183060400003C0F0FF7F0F00020173
S113034003070F1E1C3C383870707070707038389A
S11303503C1C1E0F0703010002002401FFFFD1DF34
S1130360EE600002FFFF4030180CFFFF0001E0F8D0
S11303700F0F78C0701F07F8C00001FFFF0C0C3E80
S1130380F3C1240103878CD870381F070002FFFFD4
S1130390D1DFEE600001E0F81F0F78C0701F0FF886
S11303A0C00001FFFF0C0C3EF3C12D013C42424250
S11303B02400013C4242423C00017E0618607E005B
S11303C00102027E020200017E1212126C00016020
S11303D0181618600001244A522402027E02020008
S11303E034017E4A4A4A3400016018161860020239
S11303F07E020200014000033C42424224000160AC
S11304001816186000017E404000017E00017E4AFB
S11304104A4A3400017E1212126C0001400033017A
S1130420244A522400017E4A4A4200017E06186092
S11304307E0001244A522400013C4242423C000115
S11304407E1212126C0003244A522400017E4A4A8E
S113045042000102027E0202400033017E4A4A4AFF
S11304603400017E1212126C00017E00013C4242F3
S1130470527400017E08087E000102027E0202001E
S1130480017E0618607E00017E4A4A420001244A29
S113049052240001244A522439013C42424224009D
S11304A0017E404000017E00013C424242240001A2
S11304B07E1824420003061860180600013C4242DC
S11304C0423C00017E404000013E4040403E00016D
S11304D07E0830087E00017E4A4A42003201020250
S11304E07E020200017E08087E00017E1212126C58
S11304F000017E4A4A420001244A522400017E0837
S1130500087E00013C4242423C00017E4040000122
S11305107E4242423C00030032016018161860001B
S1130520017E40400001601816186000017E12121E
S1130530126C00017E06186018067E001500370153
S11305403C4242422400013C4242423C00013E40C3
S113055040403E00017E0618607E000102027E02D9
S11305600200017E4242423C00013C4242423C00C5
S1130570010618601860180600017E0618607E00E7
S113058008010001407E41C1417E400008018040D5
S11305907E51C9457A4108013C24244281FF4A899D
S11305A00801BC44245289FF020106020E9EF6662D
S11305B0060E070706060607030290909000030044
S11305C00802603070E080E0701800037F3F010093
S11305D002FF08020001F8FC4666FCDC8080FF7F15
S11305E008181C0F07FF0802C0E02060C0E02000CC
S11305F001070F080C070F0C04FF020181FF020121
S11306003CE7010181000101BD000C020001FC94E2
S113061094680001304848F80002324A4A027A0AD3
S1130620320A7001342C0F02F840403800017E1267
S1130630126C000180402000020100032010080415
S1130640020100017E1008700E02C020204000014B
S1130650E02020C0000140A0204003040402000167
S1130660070101000202040502000501FFFF7E3CB0
S113067018000501FFFF0001FFFF1303000680803F
S1130680000C080C1E1F3FBFDFE0C080C0C0E0E0CC
S1130690F0E0000308183C7C7EFEFD03010001012C
S11306A00103030703000300130300078080800095
S11306B00E0187DFFFDF87010007030F1F3F7F1F46
S11306C006010301061F7F3F1F0F030003001303EE
S11306D0000980800008E0F0E0E0C0C080C0E0DFF6
S11306E0BF3F1F1E0C0800030307030301010001A1
S11306F00103FDFE7E7C3C18080004001303001374
S113070060787C7E7F7CB0C0E0C0B07C7F7E7C78EB
S11307106000074070FDFFFD70400008600900198B
S113072080C0E0F0F0E0C0001EC0E0F0F0E0C08067
S1130730002DC0F0F8FCFEFFFFFFFFFFFFFFFFFFEF
S1130740FCF8E0C00015C0E0F8FCFFFFFFFFFFFF6E
S1130750FFFFFFFEFCF8F0C0002380F0FCFFFFFF6A
S1130760FFFFFFFFFFFFFFFFFFFFFFFFFFFFFFFF95
S1130770FFFCF8600005808080000560F8FCFFFF46
S1130780FFFFFFFFFFFFFFFFFFFFFFFFFFFFFFFF75
S1130790FFFFFCF080001F7F7F7F7F7F7F7F7F7F55
S11307A07F7F7F7F7F7F7F7F7F7F7F7F7F0701C00A
S11307B0F0FCFEFEFFFFFFFFFFFFFFFEFEFCF0C0AC
S11307C001077F7F7F7F7F7F7F7F7F7F7F7F7F7F2B
S11307D07F7F7F7F7F7F7F7F0037030F1F3F7F7F78
S11307E0FFFFFFFFFF7F7F3F1F0F03004FC0F0F8A5
S11307F0FCFCFCF8F8F8F8F8FCFCFCF8F0C0004A43
S113080080E0F0FCFFFFFFFFFFFFFFFFFFFFFFFFA4
S1130810FFFFFFFFFFFFFFFCF0E0800043183E3FB7
S11308207F7F7FFFFFFFFFFFFFFFFFFFFFFFFFFF54
S1130830FFFFFFFFFFFF7F7F7F3F3E18004B01015B
S1130840010101010101010101002B000201E0602D
S113085004020001606000020606000108020001B3
S11308607CFE8686FEFC0002307161617F3F0001E0
S1130870080200017CFE8686FE7C00023E7F6161E8
S11308807F3E00010802000106060686FE7E000483
S11308907C7F030008020001FCFE86868E0C0002A9
S11308A03F7F61617F3F000108020001FEFE8686F2
S11308B086060002616161617F3F00010802000158
S11308C0FEFE8080FEFE00030101017F7F0001FF28
S11308D00802000106868686FE7C00026061616172
S11308E07F3E00010802000106868686FEFC0002A7
S11308F07F7F61616160000108020001181CFEFE37
S1130900000460607F7F6060000108020001FCFE5B
S11309100606FEFC00023F7F60607F3F000102018B
S11309200C0C05023C7E42FEFC000104040703009B
S11309300502DCFE22FEDC030704070305020202B3
S1130940C27E1E00000707000502FCFE22E2C0036F
S11309500704070305023E3E22E2C204040407031F
S113096005023E7E40FEFE00030707000502022248
S113097022FEDC0404040703050282C2427E3C0713
S1130980070404040502000104FEFE000204070734
S113099004000502FCFE06FEFC0307060703010132
S11309A0240001018000050100012649493E05019A
S11309B00001364949360501000101611D030501A5
S11309C000013E4949320501000127454539050129
S11309D000011814127F0501000122414936050166
S11309E00001625149460501000104027F0001FF34
S11309F0050100013E41413E0101000111241FBED9
S1130A00CFEFD4E0DEBFCDBF21E0A0E0B1E001C074
S1130A101D92AD32B207E1F7EED199C2F1CA0F923D
S1130A209DEC899F912D9695969596957AE0799F60
S1130A30801911240F9008950F93BC01A1E2B1E035
S1130A40189600270E930E930E9320E137E23DD0C3
S1130A500E931CC00F93A1E2B1E0189620E836E98A
S1130A6048E9002728D00E9320E432E44FE0002721
S1130A7022D00E9320EA36E841E000271CD00E93E2
S1130A8020E137E240E0002716D00E9328EE33E051
S1130A9000271BD00E9324E630E0002716D00E93D7
S1130AA02AE000276A3018F06A500395FBCF0E93B2
S1130AB06E930F91089562177307840708F40895DD
S1130AC0621B730B840B0395F6CF6217730708F44C
S1130AD00895621B730B0395F8CF18951F920F921C
S1130AE00FB60F9211240F900FBE0F901F90189500
S1130AF01F920F920FB60F9211248F9380911A01B7
S1130B008F5F80931A018F910F900FBE0F901F90EB
S1130B1018951F920F920FB60F92112400000F9098
S1130B200FBE0F901F9018951F920F920FB60F9241
S1130B3011242F933F934F935F936F937F938F93DE
S1130B409F93AF93BF93EF93FF93E3DFFF91EF91F5
S1130B50BF91AF919F918F917F916F915F914F91D1
S1130B603F912F910F900FBE0F901F90189582E820
S1130B708093640087EC8AB95F988CE284B92498E6
S1130B80389A88B188B983B7817F83BF83B781607E
S1130B9083BF789415BAAEE6B0E08C9182608C93F2
S1130BA080E587BD85B5856085BD16BCE6E0F1E0CE
S1130BB080EF99E09183808386EE99E0938382832A
S1130BC08EED99E09583848386ED99E097838683FF
S1130BD08EEC99E09187808786EC99E093878287F1
S1130BE08EEB99E09587848786EB99E097878687D3
S1130BF08EEA99E0918B808B86EA99E0938B828BC5
S1130C008CB580658CBD8DB581608DBD1EBC15BC59
S1130C101C92F894459AE8E6F0E080818260808333
S1130C20ECE6F0E080818E60808308951092850068
S1130C301092840087E08093810081E080936F00AC
S1130C4008951092810010926F0008952B9A0895D0
S1130C500DB407FEFDCF1CBCF8942D9A9CB590658D
S1130C609CBD8EBD2D9878940895CF93DF93C82FA3
S1130C70D62F2B988F70ECDF8C2F82958F7080612C
S1130C80E7DF8D2F8770806BDF91CF91E1CF809369
S1130C90010160930001E9CFFF920F931F93CF935B
S1130CA0DF9300D000D000D0CDB7DEB7162F1A8264
S1130CB0198200910001FC01959185919C838B839D
S1130CC08B81882319F08B8181508B838C818D8358
S1130CD0809100018F5F80930001112321F0B6DF22
S1130CE0FF24F39402C02B98FBCF8981811107C0A4
S1130CF085918E838E81811105C085918983898137
S1130D00815089838D8181508D838D81811109C0AA
S1130D108B81882331F08B8181508B838C818D83EF
S1130D20FA829E8180912001892792DF8A8188231B
S1130D3081F06091000180910101A9DF809100019F
S1130D408F5F80930001112311F080DF01C02B9885
S1130D501A828D818111C9CF0093000126960FB6A6
S1130D60F894DEBF0FBECDBFDF91CF911F910F91DD
S1130D70FF900895CF93DF9369DFD9E0C0E6C150B7
S1130D808091200165DFC111FACFD150B9F7DF910D
S1130D90CF910895CF93DF93262F672FD82FC92F94
S1130DA0822F75DF61E08D2F9C2FDF91CF9174CF5F
S1130DB00F931F9360911A01F894862F90E0A0E09E
S1130DC0B0E0DC0199278827E4E8F0E060817181D4
S1130DD011821082789410921A01AB0160E070E0E5
S1130DE08A019B01082B192B2A2B3B2BC901B80123
S1130DF01F910F910895CF93DF9300D000D000D0BE
S1130E00CDB7DEB71092200192E39093020181E006
S1130E10809303012EE732E030930501209304010F
S1130E209093290180932A0182EF92E090932C0100
S1130E3080932B01FBDE05DF9ADE8BB180788BB9C2
S1130E408FE19EE40197F1F700C000005F9AAFE1E3
S1130E50BEE41197F1F700C0000060E084E390E085
S1130E601BDF60E080E013DF85DF60910201709199
S1130E70030180910401909105018CDF8FE090E0E3
S1130E80A0E0B0E089839A83AB83BC8364E080E014
S1130E90FEDE83E6C4DD9E838D83ED81FE81EF2F2C
S1130EA0FF27EE0FFF1FEA5FFE4F61E08081918113
S1130EB0F3DEED81FE81FF27EE0FFF1FEA5FFE4F99
S1130EC061E080819181E8DE8FEF9FEF9E838D83C7
S1130ED062E080E0DCDE6D817E8180E090E0BADD5E
S1130EE006E211E051E2E52E51E0F52ED801EE9133
S1130EF08D01F0E0EE0FFF1FEA5FFE4F61E080819D
S1130F009181CADEB1E001321B0781F78FDE60E018
S1130F1080E0BDDE4DDF9EDD09E211E0D801EE91F7
S1130F208D01F0E0EE0FFF1FEA5FFE4F61E080816C
S1130F309181B2DEE016F10689F7BFEF29E688E178
S1130F40B15020408040E1F700C00000E0CFF894A9
S1050F50FFCFCD
S9030000FC
